{
  "_format": "hh-sol-artifact-1",
  "contractName": "EHR",
  "sourceName": "contracts/EHR.sol",
  "abi": [
    {
      "inputs": [],
      "stateMutability": "nonpayable",
      "type": "constructor"
    },
    {
      "inputs": [
        {
          "internalType": "uint256",
          "name": "",
          "type": "uint256"
        }
      ],
      "name": "DrIDs",
      "outputs": [
        {
          "internalType": "address",
          "name": "",
          "type": "address"
        }
      ],
      "stateMutability": "view",
      "type": "function"
    },
    {
      "inputs": [
        {
          "internalType": "uint256",
          "name": "",
          "type": "uint256"
        }
      ],
      "name": "PatientIDs",
      "outputs": [
        {
          "internalType": "address",
          "name": "",
          "type": "address"
        }
      ],
      "stateMutability": "view",
      "type": "function"
    },
    {
      "inputs": [
        {
          "internalType": "address",
          "name": "dr_id",
          "type": "address"
        },
        {
          "internalType": "string",
          "name": "_drInfo_hash",
          "type": "string"
        }
      ],
      "name": "addDoctor",
      "outputs": [],
      "stateMutability": "nonpayable",
      "type": "function"
    },
    {
      "inputs": [
        {
          "internalType": "string",
          "name": "_name",
          "type": "string"
        },
        {
          "internalType": "string",
          "name": "_age",
          "type": "string"
        },
        {
          "internalType": "string",
          "name": "_sex",
          "type": "string"
        },
        {
          "internalType": "string",
          "name": "_description",
          "type": "string"
        },
        {
          "internalType": "string",
          "name": "_ipfsHash",
          "type": "string"
        }
      ],
      "name": "addPatient",
      "outputs": [],
      "stateMutability": "nonpayable",
      "type": "function"
    },
    {
      "inputs": [],
      "name": "getAllPatients",
      "outputs": [
        {
          "internalType": "address[]",
          "name": "",
          "type": "address[]"
        }
      ],
      "stateMutability": "view",
      "type": "function"
    },
    {
      "inputs": [
        {
          "internalType": "address",
          "name": "_id",
          "type": "address"
        }
      ],
      "name": "getPatientDetails",
      "outputs": [
        {
          "internalType": "string",
          "name": "",
          "type": "string"
        },
        {
          "internalType": "string",
          "name": "",
          "type": "string"
        },
        {
          "internalType": "string",
          "name": "",
          "type": "string"
        },
        {
          "internalType": "string",
          "name": "",
          "type": "string"
        },
        {
          "internalType": "string",
          "name": "",
          "type": "string"
        }
      ],
      "stateMutability": "view",
      "type": "function"
    },
    {
      "inputs": [],
      "name": "isAdmin",
      "outputs": [
        {
          "internalType": "bool",
          "name": "",
          "type": "bool"
        }
      ],
      "stateMutability": "view",
      "type": "function"
    },
    {
      "inputs": [
        {
          "internalType": "address",
          "name": "id",
          "type": "address"
        }
      ],
      "name": "isDoctor",
      "outputs": [
        {
          "internalType": "bool",
          "name": "",
          "type": "bool"
        }
      ],
      "stateMutability": "view",
      "type": "function"
    },
    {
      "inputs": [
        {
          "internalType": "address",
          "name": "id",
          "type": "address"
        }
      ],
      "name": "isPatient",
      "outputs": [
        {
          "internalType": "bool",
          "name": "",
          "type": "bool"
        }
      ],
      "stateMutability": "view",
      "type": "function"
    }
  ],
  "bytecode": "0x60806040523480156200001157600080fd5b50620000283360006200002e60201b90919060201c565b620002c6565b620000408282620000e160201b60201c565b1562000083576040517f08c379a00000000000000000000000000000000000000000000000000000000081526004016200007a906200020c565b60405180910390fd5b60018260000160008373ffffffffffffffffffffffffffffffffffffffff1673ffffffffffffffffffffffffffffffffffffffff16815260200190815260200160002060006101000a81548160ff0219169083151502179055505050565b60008073ffffffffffffffffffffffffffffffffffffffff168273ffffffffffffffffffffffffffffffffffffffff160362000154576040517f08c379a00000000000000000000000000000000000000000000000000000000081526004016200014b90620002a4565b60405180910390fd5b8260000160008373ffffffffffffffffffffffffffffffffffffffff1673ffffffffffffffffffffffffffffffffffffffff16815260200190815260200160002060009054906101000a900460ff16905092915050565b600082825260208201905092915050565b7f526f6c65733a20616c726561647920646566696e656420726f6c650000000000600082015250565b6000620001f4601b83620001ab565b91506200020182620001bc565b602082019050919050565b600060208201905081810360008301526200022781620001e5565b9050919050565b7f526f6c65733a206163636f756e7420697320746865207a65726f20616464726560008201527f7373000000000000000000000000000000000000000000000000000000000000602082015250565b60006200028c602283620001ab565b915062000299826200022e565b604082019050919050565b60006020820190508181036000830152620002bf816200027d565b9050919050565b61170c80620002d66000396000f3fe608060405234801561001057600080fd5b50600436106100935760003560e01c8063996440c611610066578063996440c61461011e5780639f91f3121461014e578063b6db75a01461017e578063bb13227c1461019c578063efe2ccc1146101cc57610093565b806318a231a91461009857806356fa8217146100b65780637cf1e445146100d25780638f9c79ed146100ee575b600080fd5b6100a0610200565b6040516100ad9190610d32565b60405180910390f35b6100d060048036038101906100cb9190610eae565b6102e1565b005b6100ec60048036038101906100e79190610fe1565b610493565b005b6101086004803603810190610103919061103d565b6105fa565b6040516101159190611085565b60405180910390f35b6101386004803603810190610133919061103d565b610617565b6040516101459190611085565b60405180910390f35b610168600480360381019061016391906110d6565b610634565b6040516101759190611112565b60405180910390f35b610186610673565b6040516101939190611085565b60405180910390f35b6101b660048036038101906101b191906110d6565b61068e565b6040516101c39190611112565b60405180910390f35b6101e660048036038101906101e1919061103d565b6106cd565b6040516101f79594939291906111ac565b60405180910390f35b6060610216336000610ad390919063ffffffff16565b610255576040517f08c379a000000000000000000000000000000000000000000000000000000000815260040161024c9061126e565b60405180910390fd5b60068054806020026020016040519081016040528092919081815260200182805480156102d757602002820191906000526020600020905b8160009054906101000a900473ffffffffffffffffffffffffffffffffffffffff1673ffffffffffffffffffffffffffffffffffffffff168152602001906001019080831161028d575b5050505050905090565b6102f5336001610ad390919063ffffffff16565b610334576040517f08c379a000000000000000000000000000000000000000000000000000000000815260040161032b906112da565b60405180910390fd5b6000600460003373ffffffffffffffffffffffffffffffffffffffff1673ffffffffffffffffffffffffffffffffffffffff1681526020019081526020016000209050338160000160006101000a81548173ffffffffffffffffffffffffffffffffffffffff021916908373ffffffffffffffffffffffffffffffffffffffff160217905550858160010190816103cb9190611506565b50848160020190816103dd9190611506565b50838160030190816103ef9190611506565b50828160040190816104019190611506565b50818160050190816104139190611506565b506006339080600181540180825580915050600190039060005260206000200160009091909190916101000a81548173ffffffffffffffffffffffffffffffffffffffff021916908373ffffffffffffffffffffffffffffffffffffffff16021790555061048b336002610b9a90919063ffffffff16565b505050505050565b6104a7336000610ad390919063ffffffff16565b6104e6576040517f08c379a00000000000000000000000000000000000000000000000000000000081526004016104dd9061126e565b60405180910390fd5b6000600360008473ffffffffffffffffffffffffffffffffffffffff1673ffffffffffffffffffffffffffffffffffffffff1681526020019081526020016000209050828160000160006101000a81548173ffffffffffffffffffffffffffffffffffffffff021916908373ffffffffffffffffffffffffffffffffffffffff1602179055508181600101908161057d9190611506565b506005839080600181540180825580915050600190039060005260206000200160009091909190916101000a81548173ffffffffffffffffffffffffffffffffffffffff021916908373ffffffffffffffffffffffffffffffffffffffff1602179055506105f5836001610b9a90919063ffffffff16565b505050565b6000610610826002610ad390919063ffffffff16565b9050919050565b600061062d826001610ad390919063ffffffff16565b9050919050565b6006818154811061064457600080fd5b906000526020600020016000915054906101000a900473ffffffffffffffffffffffffffffffffffffffff1681565b6000610689336000610ad390919063ffffffff16565b905090565b6005818154811061069e57600080fd5b906000526020600020016000915054906101000a900473ffffffffffffffffffffffffffffffffffffffff1681565b60608060608060606106e9336001610ad390919063ffffffff16565b610728576040517f08c379a000000000000000000000000000000000000000000000000000000000815260040161071f906112da565b60405180910390fd5b6000600460008873ffffffffffffffffffffffffffffffffffffffff1673ffffffffffffffffffffffffffffffffffffffff1681526020019081526020016000206040518060c00160405290816000820160009054906101000a900473ffffffffffffffffffffffffffffffffffffffff1673ffffffffffffffffffffffffffffffffffffffff1673ffffffffffffffffffffffffffffffffffffffff1681526020016001820180546107da90611329565b80601f016020809104026020016040519081016040528092919081815260200182805461080690611329565b80156108535780601f1061082857610100808354040283529160200191610853565b820191906000526020600020905b81548152906001019060200180831161083657829003601f168201915b5050505050815260200160028201805461086c90611329565b80601f016020809104026020016040519081016040528092919081815260200182805461089890611329565b80156108e55780601f106108ba576101008083540402835291602001916108e5565b820191906000526020600020905b8154815290600101906020018083116108c857829003601f168201915b505050505081526020016003820180546108fe90611329565b80601f016020809104026020016040519081016040528092919081815260200182805461092a90611329565b80156109775780601f1061094c57610100808354040283529160200191610977565b820191906000526020600020905b81548152906001019060200180831161095a57829003601f168201915b5050505050815260200160048201805461099090611329565b80601f01602080910402602001604051908101604052809291908181526020018280546109bc90611329565b8015610a095780601f106109de57610100808354040283529160200191610a09565b820191906000526020600020905b8154815290600101906020018083116109ec57829003601f168201915b50505050508152602001600582018054610a2290611329565b80601f0160208091040260200160405190810160405280929190818152602001828054610a4e90611329565b8015610a9b5780601f10610a7057610100808354040283529160200191610a9b565b820191906000526020600020905b815481529060010190602001808311610a7e57829003601f168201915b505050505081525050905080602001518160400151826060015183608001518460a00151955095509550955095505091939590929450565b60008073ffffffffffffffffffffffffffffffffffffffff168273ffffffffffffffffffffffffffffffffffffffff1603610b43576040517f08c379a0000000000000000000000000000000000000000000000000000000008152600401610b3a9061164a565b60405180910390fd5b8260000160008373ffffffffffffffffffffffffffffffffffffffff1673ffffffffffffffffffffffffffffffffffffffff16815260200190815260200160002060009054906101000a900460ff16905092915050565b610ba48282610ad3565b15610be4576040517f08c379a0000000000000000000000000000000000000000000000000000000008152600401610bdb906116b6565b60405180910390fd5b60018260000160008373ffffffffffffffffffffffffffffffffffffffff1673ffffffffffffffffffffffffffffffffffffffff16815260200190815260200160002060006101000a81548160ff0219169083151502179055505050565b600081519050919050565b600082825260208201905092915050565b6000819050602082019050919050565b600073ffffffffffffffffffffffffffffffffffffffff82169050919050565b6000610c9982610c6e565b9050919050565b610ca981610c8e565b82525050565b6000610cbb8383610ca0565b60208301905092915050565b6000602082019050919050565b6000610cdf82610c42565b610ce98185610c4d565b9350610cf483610c5e565b8060005b83811015610d25578151610d0c8882610caf565b9750610d1783610cc7565b925050600181019050610cf8565b5085935050505092915050565b60006020820190508181036000830152610d4c8184610cd4565b905092915050565b6000604051905090565b600080fd5b600080fd5b600080fd5b600080fd5b6000601f19601f8301169050919050565b7f4e487b7100000000000000000000000000000000000000000000000000000000600052604160045260246000fd5b610dbb82610d72565b810181811067ffffffffffffffff82111715610dda57610dd9610d83565b5b80604052505050565b6000610ded610d54565b9050610df98282610db2565b919050565b600067ffffffffffffffff821115610e1957610e18610d83565b5b610e2282610d72565b9050602081019050919050565b82818337600083830152505050565b6000610e51610e4c84610dfe565b610de3565b905082815260208101848484011115610e6d57610e6c610d6d565b5b610e78848285610e2f565b509392505050565b600082601f830112610e9557610e94610d68565b5b8135610ea5848260208601610e3e565b91505092915050565b600080600080600060a08688031215610eca57610ec9610d5e565b5b600086013567ffffffffffffffff811115610ee857610ee7610d63565b5b610ef488828901610e80565b955050602086013567ffffffffffffffff811115610f1557610f14610d63565b5b610f2188828901610e80565b945050604086013567ffffffffffffffff811115610f4257610f41610d63565b5b610f4e88828901610e80565b935050606086013567ffffffffffffffff811115610f6f57610f6e610d63565b5b610f7b88828901610e80565b925050608086013567ffffffffffffffff811115610f9c57610f9b610d63565b5b610fa888828901610e80565b9150509295509295909350565b610fbe81610c8e565b8114610fc957600080fd5b50565b600081359050610fdb81610fb5565b92915050565b60008060408385031215610ff857610ff7610d5e565b5b600061100685828601610fcc565b925050602083013567ffffffffffffffff81111561102757611026610d63565b5b61103385828601610e80565b9150509250929050565b60006020828403121561105357611052610d5e565b5b600061106184828501610fcc565b91505092915050565b60008115159050919050565b61107f8161106a565b82525050565b600060208201905061109a6000830184611076565b92915050565b6000819050919050565b6110b3816110a0565b81146110be57600080fd5b50565b6000813590506110d0816110aa565b92915050565b6000602082840312156110ec576110eb610d5e565b5b60006110fa848285016110c1565b91505092915050565b61110c81610c8e565b82525050565b60006020820190506111276000830184611103565b92915050565b600081519050919050565b600082825260208201905092915050565b60005b8381101561116757808201518184015260208101905061114c565b60008484015250505050565b600061117e8261112d565b6111888185611138565b9350611198818560208601611149565b6111a181610d72565b840191505092915050565b600060a08201905081810360008301526111c68188611173565b905081810360208301526111da8187611173565b905081810360408301526111ee8186611173565b905081810360608301526112028185611173565b905081810360808301526112168184611173565b90509695505050505050565b7f4f6e6c7920666f722061646d696e000000000000000000000000000000000000600082015250565b6000611258600e83611138565b915061126382611222565b602082019050919050565b600060208201905081810360008301526112878161124b565b9050919050565b7f4f6e6c7920666f7220646f63746f727300000000000000000000000000000000600082015250565b60006112c4601083611138565b91506112cf8261128e565b602082019050919050565b600060208201905081810360008301526112f3816112b7565b9050919050565b7f4e487b7100000000000000000000000000000000000000000000000000000000600052602260045260246000fd5b6000600282049050600182168061134157607f821691505b602082108103611354576113536112fa565b5b50919050565b60008190508160005260206000209050919050565b60006020601f8301049050919050565b600082821b905092915050565b6000600883026113bc7fffffffffffffffffffffffffffffffffffffffffffffffffffffffffffffffff8261137f565b6113c6868361137f565b95508019841693508086168417925050509392505050565b6000819050919050565b60006114036113fe6113f9846110a0565b6113de565b6110a0565b9050919050565b6000819050919050565b61141d836113e8565b6114316114298261140a565b84845461138c565b825550505050565b600090565b611446611439565b611451818484611414565b505050565b5b818110156114755761146a60008261143e565b600181019050611457565b5050565b601f8211156114ba5761148b8161135a565b6114948461136f565b810160208510156114a3578190505b6114b76114af8561136f565b830182611456565b50505b505050565b600082821c905092915050565b60006114dd600019846008026114bf565b1980831691505092915050565b60006114f683836114cc565b9150826002028217905092915050565b61150f8261112d565b67ffffffffffffffff81111561152857611527610d83565b5b6115328254611329565b61153d828285611479565b600060209050601f831160018114611570576000841561155e578287015190505b61156885826114ea565b8655506115d0565b601f19841661157e8661135a565b60005b828110156115a657848901518255600182019150602085019450602081019050611581565b868310156115c357848901516115bf601f8916826114cc565b8355505b6001600288020188555050505b505050505050565b7f526f6c65733a206163636f756e7420697320746865207a65726f20616464726560008201527f7373000000000000000000000000000000000000000000000000000000000000602082015250565b6000611634602283611138565b915061163f826115d8565b604082019050919050565b6000602082019050818103600083015261166381611627565b9050919050565b7f526f6c65733a20616c726561647920646566696e656420726f6c650000000000600082015250565b60006116a0601b83611138565b91506116ab8261166a565b602082019050919050565b600060208201905081810360008301526116cf81611693565b905091905056fea26469706673582212208b55afed3482bc08bb25ca9da2f5317640e3a2a364119d0eed7761cc3dd851a964736f6c63430008170033",
  "linkReferences": {},
  "deployedLinkReferences": {}
}